:100000000C942A001895000018950000189500001F
:10001000189500001895000018950000189500002C
:100020001895000018950000189500000C94C70062
:10003000189500001895000018950000189500000C
:1000400018950000189500001895000018950000FC
:10005000189500008FE58DBFC8E3E0E24E2E84E0E6
:100060008EBFD4E0F4E05F2EA89584B7082E877F7A
:1000700084BF88E1992781BD91BDEEEFF3E0A0E652
:10008000B0E088278D933197E9F789E189B980E05D
:1000900080BD88E18AB9662485E886B980E487B99D
:1000A000379A8D9A8C9A81EA8FBD82E08EBD79B79E
:1000B000706179BF579A789480E087BB8FEF84BBDB
:1000C0007FEF78BB84E690E00E948801AEE6B0E066
:1000D0008C91992790934B0080934A000E940C01C9
:1000E0000E9476000C946600F894FFCF07B1007E62
:1000F000006007B90E949701082F192F4AE050E0CD
:100100000E945301A0E6B0E04D935C9380916000A3
:100110008093680007B1007E016007B90E949701D3
:10012000082F192F4AE050E00E945301A2E6B0E0E8
:100130004D935C93809162008093690007B1007ECB
:10014000026007B90E949701082F192F4AE050E07A
:100150000E945301A4E6B0E04D935C93809164004B
:1001600080936A0007B1007E036007B90E9497017F
:10017000082F192F4AE050E00E945301A6E6B0E094
:100180004D935C938091660080936B0008950F926D
:100190001F922F923F924F925F927F92AF92BF92A7
:1001A0000F931F932F933F934F935F936F937F937F
:1001B0008F939F93AF93BF93CF93DF93EF93FF936F
:1001C0008FB78F9331E0ACE6B0E00E946D0131E073
:1001D000AEE6B0E00E946D01ACE6B0E08C9185BB6C
:1001E0008F918FBFFF91EF91DF91CF91BF91AF9131
:1001F0009F918F917F916F915F914F913F912F913F
:100200001F910F91BF90AF907F905F904F903F9064
:100210002F901F900F901895ADE6B0E086B38C93A9
:1002200081E30E947B0131E0ADE6B0E00E947601FF
:1002300031E0A8E6B0E00E94760131E0A9E6B0E046
:100240000E94760131E0AAE6B0E00E94760131E03A
:10025000ABE6B0E00E94760182E30E947B01089544
:1002600000FC10D0089503D01ED001F8F9CF00246F
:10027000E89457FF02C009D0689400F80BD010F83A
:100280000124089502D009D00895509540954F5FFC
:100290005F4F0895E89417FF0895009510950F5F3C
:1002A0001F4F68940895352F242FE894452B11F49F
:1002B00068940895512F402F0027112780E1440FA3
:1002C000551F001F111F021B130B416018F4020F72
:1002D000131F4E7F8A9599F7089504D08D933A9510
:1002E000E1F708955F9BFECF8CB108958D9103D007
:1002F0003A95E1F708955D9BFECF8CB9089531974B
:10030000F1F70895689462F80895E89462F8089502
:10031000EF93FF93EE27E82BE92B31F0E8EEF3E0C3
:100320003197F1F70197D1F7FF91EF910895369A40
:100330003699FECF369A3699FECF84B195B108959D
:00000001FF
